{
  "contractName": "BestMarket",
  "abi": [
    {
      "constant": true,
      "inputs": [],
      "name": "numOfSellers",
      "outputs": [
        {
          "name": "",
          "type": "uint256"
        }
      ],
      "payable": false,
      "stateMutability": "view",
      "type": "function"
    },
    {
      "constant": true,
      "inputs": [],
      "name": "isContractInit",
      "outputs": [
        {
          "name": "",
          "type": "bool"
        }
      ],
      "payable": false,
      "stateMutability": "view",
      "type": "function"
    },
    {
      "constant": true,
      "inputs": [],
      "name": "numOfBuyers",
      "outputs": [
        {
          "name": "",
          "type": "uint256"
        }
      ],
      "payable": false,
      "stateMutability": "view",
      "type": "function"
    },
    {
      "constant": true,
      "inputs": [],
      "name": "registerTax",
      "outputs": [
        {
          "name": "",
          "type": "uint256"
        }
      ],
      "payable": false,
      "stateMutability": "view",
      "type": "function"
    },
    {
      "constant": true,
      "inputs": [
        {
          "name": "",
          "type": "address"
        }
      ],
      "name": "sellers",
      "outputs": [
        {
          "name": "",
          "type": "bool"
        }
      ],
      "payable": false,
      "stateMutability": "view",
      "type": "function"
    },
    {
      "constant": true,
      "inputs": [],
      "name": "owner",
      "outputs": [
        {
          "name": "",
          "type": "address"
        }
      ],
      "payable": false,
      "stateMutability": "view",
      "type": "function"
    },
    {
      "constant": true,
      "inputs": [
        {
          "name": "",
          "type": "address"
        }
      ],
      "name": "buyers",
      "outputs": [
        {
          "name": "",
          "type": "bool"
        }
      ],
      "payable": false,
      "stateMutability": "view",
      "type": "function"
    },
    {
      "constant": true,
      "inputs": [
        {
          "name": "",
          "type": "bytes32"
        }
      ],
      "name": "productByName",
      "outputs": [
        {
          "name": "",
          "type": "uint256"
        }
      ],
      "payable": false,
      "stateMutability": "view",
      "type": "function"
    },
    {
      "constant": true,
      "inputs": [
        {
          "name": "",
          "type": "uint256"
        }
      ],
      "name": "allProducts",
      "outputs": [
        {
          "name": "price",
          "type": "uint256"
        },
        {
          "name": "name",
          "type": "string"
        },
        {
          "name": "description",
          "type": "string"
        },
        {
          "name": "ipfsPath",
          "type": "string"
        },
        {
          "name": "seller",
          "type": "address"
        }
      ],
      "payable": false,
      "stateMutability": "view",
      "type": "function"
    },
    {
      "constant": true,
      "inputs": [
        {
          "name": "",
          "type": "bytes32"
        }
      ],
      "name": "isProductExist",
      "outputs": [
        {
          "name": "",
          "type": "bool"
        }
      ],
      "payable": false,
      "stateMutability": "view",
      "type": "function"
    },
    {
      "constant": true,
      "inputs": [],
      "name": "fee",
      "outputs": [
        {
          "name": "",
          "type": "uint256"
        }
      ],
      "payable": false,
      "stateMutability": "view",
      "type": "function"
    },
    {
      "constant": true,
      "inputs": [],
      "name": "mt",
      "outputs": [
        {
          "name": "",
          "type": "address"
        }
      ],
      "payable": false,
      "stateMutability": "view",
      "type": "function"
    },
    {
      "inputs": [],
      "payable": false,
      "stateMutability": "nonpayable",
      "type": "constructor"
    },
    {
      "payable": true,
      "stateMutability": "payable",
      "type": "fallback"
    },
    {
      "anonymous": false,
      "inputs": [
        {
          "indexed": false,
          "name": "addr",
          "type": "address"
        },
        {
          "indexed": false,
          "name": "_registerTax",
          "type": "uint256"
        },
        {
          "indexed": false,
          "name": "currentTime",
          "type": "uint256"
        }
      ],
      "name": "RegisterEvent",
      "type": "event"
    },
    {
      "anonymous": false,
      "inputs": [
        {
          "indexed": false,
          "name": "addr",
          "type": "address"
        },
        {
          "indexed": false,
          "name": "currentTime",
          "type": "uint256"
        },
        {
          "indexed": false,
          "name": "price",
          "type": "uint256"
        },
        {
          "indexed": false,
          "name": "productName",
          "type": "string"
        }
      ],
      "name": "BuyProduct",
      "type": "event"
    },
    {
      "constant": false,
      "inputs": [
        {
          "name": "_token",
          "type": "address"
        }
      ],
      "name": "initialize",
      "outputs": [],
      "payable": false,
      "stateMutability": "nonpayable",
      "type": "function"
    },
    {
      "constant": true,
      "inputs": [],
      "name": "getOwner",
      "outputs": [
        {
          "name": "",
          "type": "address"
        }
      ],
      "payable": false,
      "stateMutability": "view",
      "type": "function"
    },
    {
      "constant": true,
      "inputs": [],
      "name": "getNumOfSellers",
      "outputs": [
        {
          "name": "",
          "type": "uint256"
        }
      ],
      "payable": false,
      "stateMutability": "view",
      "type": "function"
    },
    {
      "constant": true,
      "inputs": [],
      "name": "getNumOfBuyers",
      "outputs": [
        {
          "name": "",
          "type": "uint256"
        }
      ],
      "payable": false,
      "stateMutability": "view",
      "type": "function"
    },
    {
      "constant": false,
      "inputs": [],
      "name": "registerAsSeller",
      "outputs": [
        {
          "name": "",
          "type": "bool"
        }
      ],
      "payable": false,
      "stateMutability": "nonpayable",
      "type": "function"
    },
    {
      "constant": false,
      "inputs": [
        {
          "name": "_price",
          "type": "uint256"
        },
        {
          "name": "_productName",
          "type": "string"
        },
        {
          "name": "_decription",
          "type": "string"
        },
        {
          "name": "_ipfsPath",
          "type": "string"
        }
      ],
      "name": "addProduct",
      "outputs": [],
      "payable": false,
      "stateMutability": "nonpayable",
      "type": "function"
    },
    {
      "constant": false,
      "inputs": [],
      "name": "registerAsBuyer",
      "outputs": [],
      "payable": false,
      "stateMutability": "nonpayable",
      "type": "function"
    },
    {
      "constant": false,
      "inputs": [
        {
          "name": "_productName",
          "type": "string"
        }
      ],
      "name": "buyProduct",
      "outputs": [
        {
          "name": "",
          "type": "uint256"
        },
        {
          "name": "",
          "type": "string"
        },
        {
          "name": "",
          "type": "string"
        },
        {
          "name": "",
          "type": "string"
        }
      ],
      "payable": false,
      "stateMutability": "nonpayable",
      "type": "function"
    },
    {
      "constant": false,
      "inputs": [
        {
          "name": "amountTkns",
          "type": "uint256"
        }
      ],
      "name": "withdraw",
      "outputs": [],
      "payable": false,
      "stateMutability": "nonpayable",
      "type": "function"
    },
    {
      "constant": true,
      "inputs": [
        {
          "name": "_productName",
          "type": "string"
        }
      ],
      "name": "getProductPrice",
      "outputs": [
        {
          "name": "",
          "type": "uint256"
        }
      ],
      "payable": false,
      "stateMutability": "view",
      "type": "function"
    },
    {
      "constant": true,
      "inputs": [],
      "name": "getBalance",
      "outputs": [
        {
          "name": "",
          "type": "uint256"
        }
      ],
      "payable": false,
      "stateMutability": "view",
      "type": "function"
    },
    {
      "constant": true,
      "inputs": [],
      "name": "getNumberOfProducts",
      "outputs": [
        {
          "name": "",
          "type": "uint256"
        }
      ],
      "payable": false,
      "stateMutability": "view",
      "type": "function"
    },
    {
      "constant": true,
      "inputs": [
        {
          "name": "index",
          "type": "uint256"
        }
      ],
      "name": "getProduct",
      "outputs": [
        {
          "name": "",
          "type": "uint256"
        },
        {
          "name": "",
          "type": "string"
        },
        {
          "name": "",
          "type": "string"
        },
        {
          "name": "",
          "type": "string"
        }
      ],
      "payable": false,
      "stateMutability": "view",
      "type": "function"
    }
  ],
  "bytecode": "0x6060604052341561000f57600080fd5b336000806101000a81548173ffffffffffffffffffffffffffffffffffffffff021916908373ffffffffffffffffffffffffffffffffffffffff16021790555061346e8061005e6000396000f300606060405260043610610149576000357c0100000000000000000000000000000000000000000000000000000000900463ffffffff168063050fccc71461014b57806312065fe014610174578063128b85321461019d5780632e1a7d4d146101ca57806333116f8b146101ed578063364e022f1461021a5780633ffd81fb146103cf578063454d90bb146103f85780634d9ad8a5146104215780635b4a5cf21461044a578063694caedf1461045f5780636d47ab72146104d0578063893d20e8146105215780638da5cb5b1461057657806397a993aa146105cb578063b9db15b41461061c578063be29a32614610797578063c1393d27146107d2578063c35b84a4146108be578063c4d66de8146108e7578063cfaaef5614610920578063db54635d14610b25578063dd91b92914610b4e578063ddca3f4314610b8d578063fe1df86e14610bb6575b005b341561015657600080fd5b61015e610c0b565b6040518082815260200191505060405180910390f35b341561017f57600080fd5b610187610c11565b6040518082815260200191505060405180910390f35b34156101a857600080fd5b6101b0610dae565b604051808215151515815260200191505060405180910390f35b34156101d557600080fd5b6101eb600480803590602001909190505061126d565b005b34156101f857600080fd5b61020061175a565b604051808215151515815260200191505060405180910390f35b341561022557600080fd5b610275600480803590602001908201803590602001908080601f0160208091040260200160405190810160405280939291908181526020018383808284378201915050505050509190505061176d565b60405180858152602001806020018060200180602001848103845287818151815260200191508051906020019080838360005b838110156102c35780820151818401526020810190506102a8565b50505050905090810190601f1680156102f05780820380516001836020036101000a031916815260200191505b50848103835286818151815260200191508051906020019080838360005b8381101561032957808201518184015260208101905061030e565b50505050905090810190601f1680156103565780820380516001836020036101000a031916815260200191505b50848103825285818151815260200191508051906020019080838360005b8381101561038f578082015181840152602081019050610374565b50505050905090810190601f1680156103bc5780820380516001836020036101000a031916815260200191505b5097505050505050505060405180910390f35b34156103da57600080fd5b6103e26122c3565b6040518082815260200191505060405180910390f35b341561040357600080fd5b61040b6122d0565b6040518082815260200191505060405180910390f35b341561042c57600080fd5b6104346122d6565b6040518082815260200191505060405180910390f35b341561045557600080fd5b61045d6122dc565b005b341561046a57600080fd5b6104ba600480803590602001908201803590602001908080601f01602080910402602001604051908101604052809392919081815260200183838082843782019150505050505091905050612795565b6040518082815260200191505060405180910390f35b34156104db57600080fd5b610507600480803573ffffffffffffffffffffffffffffffffffffffff169060200190919050506128d2565b604051808215151515815260200191505060405180910390f35b341561052c57600080fd5b6105346128f2565b604051808273ffffffffffffffffffffffffffffffffffffffff1673ffffffffffffffffffffffffffffffffffffffff16815260200191505060405180910390f35b341561058157600080fd5b61058961291b565b604051808273ffffffffffffffffffffffffffffffffffffffff1673ffffffffffffffffffffffffffffffffffffffff16815260200191505060405180910390f35b34156105d657600080fd5b610602600480803573ffffffffffffffffffffffffffffffffffffffff16906020019091905050612940565b604051808215151515815260200191505060405180910390f35b341561062757600080fd5b61063d6004808035906020019091905050612960565b60405180858152602001806020018060200180602001848103845287818151815260200191508051906020019080838360005b8381101561068b578082015181840152602081019050610670565b50505050905090810190601f1680156106b85780820380516001836020036101000a031916815260200191505b50848103835286818151815260200191508051906020019080838360005b838110156106f15780820151818401526020810190506106d6565b50505050905090810190601f16801561071e5780820380516001836020036101000a031916815260200191505b50848103825285818151815260200191508051906020019080838360005b8381101561075757808201518184015260208101905061073c565b50505050905090810190601f1680156107845780820380516001836020036101000a031916815260200191505b5097505050505050505060405180910390f35b34156107a257600080fd5b6107bc600480803560001916906020019091905050612bfe565b6040518082815260200191505060405180910390f35b34156107dd57600080fd5b6108bc600480803590602001909190803590602001908201803590602001908080601f0160208091040260200160405190810160405280939291908181526020018383808284378201915050505050509190803590602001908201803590602001908080601f0160208091040260200160405190810160405280939291908181526020018383808284378201915050505050509190803590602001908201803590602001908080601f01602080910402602001604051908101604052809392919081815260200183838082843782019150505050505091905050612c16565b005b34156108c957600080fd5b6108d1612fbf565b6040518082815260200191505060405180910390f35b34156108f257600080fd5b61091e600480803573ffffffffffffffffffffffffffffffffffffffff16906020019091905050612fc9565b005b341561092b57600080fd5b6109416004808035906020019091905050613156565b604051808681526020018060200180602001806020018573ffffffffffffffffffffffffffffffffffffffff1673ffffffffffffffffffffffffffffffffffffffff168152602001848103845288818154600181600116156101000203166002900481526020019150805460018160011615610100020316600290048015610a0a5780601f106109df57610100808354040283529160200191610a0a565b820191906000526020600020905b8154815290600101906020018083116109ed57829003601f168201915b5050848103835287818154600181600116156101000203166002900481526020019150805460018160011615610100020316600290048015610a8d5780601f10610a6257610100808354040283529160200191610a8d565b820191906000526020600020905b815481529060010190602001808311610a7057829003601f168201915b5050848103825286818154600181600116156101000203166002900481526020019150805460018160011615610100020316600290048015610b105780601f10610ae557610100808354040283529160200191610b10565b820191906000526020600020905b815481529060010190602001808311610af357829003601f168201915b50509850505050505050505060405180910390f35b3415610b3057600080fd5b610b386131b8565b6040518082815260200191505060405180910390f35b3415610b5957600080fd5b610b736004808035600019169060200190919050506131c2565b604051808215151515815260200191505060405180910390f35b3415610b9857600080fd5b610ba06131e2565b6040518082815260200191505060405180910390f35b3415610bc157600080fd5b610bc96131e8565b604051808273ffffffffffffffffffffffffffffffffffffffff1673ffffffffffffffffffffffffffffffffffffffff16815260200191505060405180910390f35b60045481565b600060011515600960003373ffffffffffffffffffffffffffffffffffffffff1673ffffffffffffffffffffffffffffffffffffffff16815260200190815260200160002060009054906101000a900460ff1615151480610cbe57503373ffffffffffffffffffffffffffffffffffffffff166000809054906101000a900473ffffffffffffffffffffffffffffffffffffffff1673ffffffffffffffffffffffffffffffffffffffff16145b1515610cc957600080fd5b600160009054906101000a900473ffffffffffffffffffffffffffffffffffffffff1673ffffffffffffffffffffffffffffffffffffffff166370a08231336000604051602001526040518263ffffffff167c0100000000000000000000000000000000000000000000000000000000028152600401808273ffffffffffffffffffffffffffffffffffffffff1673ffffffffffffffffffffffffffffffffffffffff168152602001915050602060405180830381600087803b1515610d8e57600080fd5b6102c65a03f11515610d9f57600080fd5b50505060405180519050905090565b60008060149054906101000a900460ff161515610dca57600080fd5b60011515600960003373ffffffffffffffffffffffffffffffffffffffff1673ffffffffffffffffffffffffffffffffffffffff16815260200190815260200160002060009054906101000a900460ff16151514151515610e2a57600080fd5b600254600160009054906101000a900473ffffffffffffffffffffffffffffffffffffffff1673ffffffffffffffffffffffffffffffffffffffff1663dd62ed3e33306000604051602001526040518363ffffffff167c0100000000000000000000000000000000000000000000000000000000028152600401808373ffffffffffffffffffffffffffffffffffffffff1673ffffffffffffffffffffffffffffffffffffffff1681526020018273ffffffffffffffffffffffffffffffffffffffff1673ffffffffffffffffffffffffffffffffffffffff16815260200192505050602060405180830381600087803b1515610f2657600080fd5b6102c65a03f11515610f3757600080fd5b50505060405180519050141515610f4d57600080fd5b600160009054906101000a900473ffffffffffffffffffffffffffffffffffffffff1673ffffffffffffffffffffffffffffffffffffffff166323b872dd3330600160009054906101000a900473ffffffffffffffffffffffffffffffffffffffff1673ffffffffffffffffffffffffffffffffffffffff1663dd62ed3e33306000604051602001526040518363ffffffff167c0100000000000000000000000000000000000000000000000000000000028152600401808373ffffffffffffffffffffffffffffffffffffffff1673ffffffffffffffffffffffffffffffffffffffff1681526020018273ffffffffffffffffffffffffffffffffffffffff1673ffffffffffffffffffffffffffffffffffffffff16815260200192505050602060405180830381600087803b151561108657600080fd5b6102c65a03f1151561109757600080fd5b505050604051805190506000604051602001526040518463ffffffff167c0100000000000000000000000000000000000000000000000000000000028152600401808473ffffffffffffffffffffffffffffffffffffffff1673ffffffffffffffffffffffffffffffffffffffff1681526020018373ffffffffffffffffffffffffffffffffffffffff1673ffffffffffffffffffffffffffffffffffffffff1681526020018281526020019350505050602060405180830381600087803b151561116157600080fd5b6102c65a03f1151561117257600080fd5b50505060405180519050506001600960003373ffffffffffffffffffffffffffffffffffffffff1673ffffffffffffffffffffffffffffffffffffffff16815260200190815260200160002060006101000a81548160ff0219169083151502179055506111eb600160045461320e90919063ffffffff16565b6004819055507f88a6dec22cd69152c059e93e43c080a382a77b3214ec3eb8c3a37a282dc94a7a3360025442604051808473ffffffffffffffffffffffffffffffffffffffff1673ffffffffffffffffffffffffffffffffffffffff168152602001838152602001828152602001935050505060405180910390a16001905090565b60008060011515600960003373ffffffffffffffffffffffffffffffffffffffff1673ffffffffffffffffffffffffffffffffffffffff16815260200190815260200160002060009054906101000a900460ff161515148061131b57503373ffffffffffffffffffffffffffffffffffffffff166000809054906101000a900473ffffffffffffffffffffffffffffffffffffffff1673ffffffffffffffffffffffffffffffffffffffff16145b151561132657600080fd5b600083118015611415575082600160009054906101000a900473ffffffffffffffffffffffffffffffffffffffff1673ffffffffffffffffffffffffffffffffffffffff166370a08231336000604051602001526040518263ffffffff167c0100000000000000000000000000000000000000000000000000000000028152600401808273ffffffffffffffffffffffffffffffffffffffff1673ffffffffffffffffffffffffffffffffffffffff168152602001915050602060405180830381600087803b15156113f757600080fd5b6102c65a03f1151561140857600080fd5b5050506040518051905010155b151561142057600080fd5b600160009054906101000a900473ffffffffffffffffffffffffffffffffffffffff1673ffffffffffffffffffffffffffffffffffffffff1663095ea7b333856000604051602001526040518363ffffffff167c0100000000000000000000000000000000000000000000000000000000028152600401808373ffffffffffffffffffffffffffffffffffffffff1673ffffffffffffffffffffffffffffffffffffffff16815260200182815260200192505050602060405180830381600087803b15156114ed57600080fd5b6102c65a03f115156114fe57600080fd5b50505060405180519050151561151357600080fd5b82915060009250600160009054906101000a900473ffffffffffffffffffffffffffffffffffffffff1673ffffffffffffffffffffffffffffffffffffffff166323b872dd336000809054906101000a900473ffffffffffffffffffffffffffffffffffffffff16856000604051602001526040518463ffffffff167c0100000000000000000000000000000000000000000000000000000000028152600401808473ffffffffffffffffffffffffffffffffffffffff1673ffffffffffffffffffffffffffffffffffffffff1681526020018373ffffffffffffffffffffffffffffffffffffffff1673ffffffffffffffffffffffffffffffffffffffff1681526020018281526020019350505050602060405180830381600087803b151561163c57600080fd5b6102c65a03f1151561164d57600080fd5b5050506040518051905050611713600160009054906101000a900473ffffffffffffffffffffffffffffffffffffffff1673ffffffffffffffffffffffffffffffffffffffff16633ba0b9a96000604051602001526040518163ffffffff167c0100000000000000000000000000000000000000000000000000000000028152600401602060405180830381600087803b15156116e957600080fd5b6102c65a03f115156116fa57600080fd5b505050604051805190508361322a90919063ffffffff16565b90503373ffffffffffffffffffffffffffffffffffffffff166108fc829081150290604051600060405180830381858888f19350505050151561175557600080fd5b505050565b600060149054906101000a900460ff1681565b6000611777613291565b61177f613291565b611787613291565b60008060008060149054906101000a900460ff1615156117a657600080fd5b876040518082805190602001908083835b6020831015156117dc57805182526020820191506020810190506020830392506117b7565b6001836020036101000a0380198251168184511680821785525050505050509050019150506040518091039020925060086000846000191660001916815260200190815260200160002060009054906101000a900460ff16151561183f57600080fd5b600a60003373ffffffffffffffffffffffffffffffffffffffff1673ffffffffffffffffffffffffffffffffffffffff16815260200190815260200160002060009054906101000a900460ff16151561189757600080fd5b6118fa6003546118ec60646006600760008960001916600019168152602001908152602001600020548154811015156118cc57fe5b90600052602060002090600502016000015461322a90919063ffffffff16565b61324090919063ffffffff16565b915061194a8260066007600087600019166000191681526020019081526020016000205481548110151561192a57fe5b90600052602060002090600502016000015461327890919063ffffffff16565b905081600160009054906101000a900473ffffffffffffffffffffffffffffffffffffffff1673ffffffffffffffffffffffffffffffffffffffff1663dd62ed3e33306000604051602001526040518363ffffffff167c0100000000000000000000000000000000000000000000000000000000028152600401808373ffffffffffffffffffffffffffffffffffffffff1673ffffffffffffffffffffffffffffffffffffffff1681526020018273ffffffffffffffffffffffffffffffffffffffff1673ffffffffffffffffffffffffffffffffffffffff16815260200192505050602060405180830381600087803b1515611a4657600080fd5b6102c65a03f11515611a5757600080fd5b50505060405180519050141515611a6d57600080fd5b80600160009054906101000a900473ffffffffffffffffffffffffffffffffffffffff1673ffffffffffffffffffffffffffffffffffffffff1663dd62ed3e33600660076000896000191660001916815260200190815260200160002054815481101515611ad757fe5b906000526020600020906005020160040160009054906101000a900473ffffffffffffffffffffffffffffffffffffffff166000604051602001526040518363ffffffff167c0100000000000000000000000000000000000000000000000000000000028152600401808373ffffffffffffffffffffffffffffffffffffffff1673ffffffffffffffffffffffffffffffffffffffff1681526020018273ffffffffffffffffffffffffffffffffffffffff1673ffffffffffffffffffffffffffffffffffffffff16815260200192505050602060405180830381600087803b1515611bc257600080fd5b6102c65a03f11515611bd357600080fd5b50505060405180519050141515611be957600080fd5b600160009054906101000a900473ffffffffffffffffffffffffffffffffffffffff1673ffffffffffffffffffffffffffffffffffffffff166323b872dd3330856000604051602001526040518463ffffffff167c0100000000000000000000000000000000000000000000000000000000028152600401808473ffffffffffffffffffffffffffffffffffffffff1673ffffffffffffffffffffffffffffffffffffffff1681526020018373ffffffffffffffffffffffffffffffffffffffff1673ffffffffffffffffffffffffffffffffffffffff1681526020018281526020019350505050602060405180830381600087803b1515611cea57600080fd5b6102c65a03f11515611cfb57600080fd5b5050506040518051905050600160009054906101000a900473ffffffffffffffffffffffffffffffffffffffff1673ffffffffffffffffffffffffffffffffffffffff166323b872dd33600660076000886000191660001916815260200190815260200160002054815481101515611d6f57fe5b906000526020600020906005020160040160009054906101000a900473ffffffffffffffffffffffffffffffffffffffff16846000604051602001526040518463ffffffff167c0100000000000000000000000000000000000000000000000000000000028152600401808473ffffffffffffffffffffffffffffffffffffffff1673ffffffffffffffffffffffffffffffffffffffff1681526020018373ffffffffffffffffffffffffffffffffffffffff1673ffffffffffffffffffffffffffffffffffffffff1681526020018281526020019350505050602060405180830381600087803b1515611e6257600080fd5b6102c65a03f11515611e7357600080fd5b50505060405180519050507f554f5496153fb43bf1d11746f3787eb4b9c1be42705dbab96483a46b6ec215463342600660076000886000191660001916815260200190815260200160002054815481101515611ecb57fe5b906000526020600020906005020160000154600660076000896000191660001916815260200190815260200160002054815481101515611f0757fe5b9060005260206000209060050201600101604051808573ffffffffffffffffffffffffffffffffffffffff1673ffffffffffffffffffffffffffffffffffffffff16815260200184815260200183815260200180602001828103825283818154600181600116156101000203166002900481526020019150805460018160011615610100020316600290048015611fdf5780601f10611fb457610100808354040283529160200191611fdf565b820191906000526020600020905b815481529060010190602001808311611fc257829003601f168201915b50509550505050505060405180910390a160066007600085600019166000191681526020019081526020016000205481548110151561201a57fe5b90600052602060002090600502016000015460066007600086600019166000191681526020019081526020016000205481548110151561205657fe5b906000526020600020906005020160010160066007600087600019166000191681526020019081526020016000205481548110151561209157fe5b90600052602060002090600502016002016006600760008860001916600019168152602001908152602001600020548154811015156120cc57fe5b9060005260206000209060050201600301828054600181600116156101000203166002900480601f0160208091040260200160405190810160405280929190818152602001828054600181600116156101000203166002900480156121725780601f1061214757610100808354040283529160200191612172565b820191906000526020600020905b81548152906001019060200180831161215557829003601f168201915b50505050509250818054600181600116156101000203166002900480601f01602080910402602001604051908101604052809291908181526020018280546001816001161561010002031660029004801561220e5780601f106121e35761010080835404028352916020019161220e565b820191906000526020600020905b8154815290600101906020018083116121f157829003601f168201915b50505050509150808054600181600116156101000203166002900480601f0160208091040260200160405190810160405280929190818152602001828054600181600116156101000203166002900480156122aa5780601f1061227f576101008083540402835291602001916122aa565b820191906000526020600020905b81548152906001019060200180831161228d57829003601f168201915b5050505050905096509650965096505050509193509193565b6000600680549050905090565b60055481565b60025481565b600060149054906101000a900460ff1615156122f757600080fd5b60011515600a60003373ffffffffffffffffffffffffffffffffffffffff1673ffffffffffffffffffffffffffffffffffffffff16815260200190815260200160002060009054906101000a900460ff1615151415151561235757600080fd5b600254600160009054906101000a900473ffffffffffffffffffffffffffffffffffffffff1673ffffffffffffffffffffffffffffffffffffffff1663dd62ed3e33306000604051602001526040518363ffffffff167c0100000000000000000000000000000000000000000000000000000000028152600401808373ffffffffffffffffffffffffffffffffffffffff1673ffffffffffffffffffffffffffffffffffffffff1681526020018273ffffffffffffffffffffffffffffffffffffffff1673ffffffffffffffffffffffffffffffffffffffff16815260200192505050602060405180830381600087803b151561245357600080fd5b6102c65a03f1151561246457600080fd5b5050506040518051905014151561247a57600080fd5b600160009054906101000a900473ffffffffffffffffffffffffffffffffffffffff1673ffffffffffffffffffffffffffffffffffffffff166323b872dd3330600160009054906101000a900473ffffffffffffffffffffffffffffffffffffffff1673ffffffffffffffffffffffffffffffffffffffff1663dd62ed3e33306000604051602001526040518363ffffffff167c0100000000000000000000000000000000000000000000000000000000028152600401808373ffffffffffffffffffffffffffffffffffffffff1673ffffffffffffffffffffffffffffffffffffffff1681526020018273ffffffffffffffffffffffffffffffffffffffff1673ffffffffffffffffffffffffffffffffffffffff16815260200192505050602060405180830381600087803b15156125b357600080fd5b6102c65a03f115156125c457600080fd5b505050604051805190506000604051602001526040518463ffffffff167c0100000000000000000000000000000000000000000000000000000000028152600401808473ffffffffffffffffffffffffffffffffffffffff1673ffffffffffffffffffffffffffffffffffffffff1681526020018373ffffffffffffffffffffffffffffffffffffffff1673ffffffffffffffffffffffffffffffffffffffff1681526020018281526020019350505050602060405180830381600087803b151561268e57600080fd5b6102c65a03f1151561269f57600080fd5b50505060405180519050506001600a60003373ffffffffffffffffffffffffffffffffffffffff1673ffffffffffffffffffffffffffffffffffffffff16815260200190815260200160002060006101000a81548160ff021916908315150217905550612718600160055461320e90919063ffffffff16565b6005819055507f88a6dec22cd69152c059e93e43c080a382a77b3214ec3eb8c3a37a282dc94a7a3360025442604051808473ffffffffffffffffffffffffffffffffffffffff1673ffffffffffffffffffffffffffffffffffffffff168152602001838152602001828152602001935050505060405180910390a1565b600060086000836040518082805190602001908083835b6020831015156127d157805182526020820191506020810190506020830392506127ac565b6001836020036101000a03801982511681845116808217855250505050505090500191505060405180910390206000191660001916815260200190815260200160002060009054906101000a900460ff16151561282d57600080fd5b600660076000846040518082805190602001908083835b6020831015156128695780518252602082019150602081019050602083039250612844565b6001836020036101000a038019825116818451168082178552505050505050905001915050604051809103902060001916600019168152602001908152602001600020548154811015156128b957fe5b9060005260206000209060050201600001549050919050565b60096020528060005260406000206000915054906101000a900460ff1681565b60008060009054906101000a900473ffffffffffffffffffffffffffffffffffffffff16905090565b6000809054906101000a900473ffffffffffffffffffffffffffffffffffffffff1681565b600a6020528060005260406000206000915054906101000a900460ff1681565b600061296a613291565b612972613291565b61297a613291565b6000851015801561298f575060068054905085105b151561299a57600080fd5b6006858154811015156129a957fe5b9060005260206000209060050201600001546006868154811015156129ca57fe5b90600052602060002090600502016001016006878154811015156129ea57fe5b9060005260206000209060050201600201600688815481101515612a0a57fe5b9060005260206000209060050201600301828054600181600116156101000203166002900480601f016020809104026020016040519081016040528092919081815260200182805460018160011615610100020316600290048015612ab05780601f10612a8557610100808354040283529160200191612ab0565b820191906000526020600020905b815481529060010190602001808311612a9357829003601f168201915b50505050509250818054600181600116156101000203166002900480601f016020809104026020016040519081016040528092919081815260200182805460018160011615610100020316600290048015612b4c5780601f10612b2157610100808354040283529160200191612b4c565b820191906000526020600020905b815481529060010190602001808311612b2f57829003601f168201915b50505050509150808054600181600116156101000203166002900480601f016020809104026020016040519081016040528092919081815260200182805460018160011615610100020316600290048015612be85780601f10612bbd57610100808354040283529160200191612be8565b820191906000526020600020905b815481529060010190602001808311612bcb57829003601f168201915b5050505050905093509350935093509193509193565b60076020528060005260406000206000915090505481565b600060149054906101000a900460ff161515612c3157600080fd5b60011515600960003373ffffffffffffffffffffffffffffffffffffffff1673ffffffffffffffffffffffffffffffffffffffff16815260200190815260200160002060009054906101000a900460ff1615151480612cdc57503373ffffffffffffffffffffffffffffffffffffffff166000809054906101000a900473ffffffffffffffffffffffffffffffffffffffff1673ffffffffffffffffffffffffffffffffffffffff16145b1515612ce757600080fd5b826001151560086000836040518082805190602001908083835b602083101515612d265780518252602082019150602081019050602083039250612d01565b6001836020036101000a03801982511681845116808217855250505050505090500191505060405180910390206000191660001916815260200190815260200160002060009054906101000a900460ff16151514151515612d8657600080fd5b600160086000866040518082805190602001908083835b602083101515612dc25780518252602082019150602081019050602083039250612d9d565b6001836020036101000a03801982511681845116808217855250505050505090500191505060405180910390206000191660001916815260200190815260200160002060006101000a81548160ff02191690831515021790555060068054806001018281612e3091906132a5565b9160005260206000209060050201600060a0604051908101604052808981526020018881526020018781526020018681526020013373ffffffffffffffffffffffffffffffffffffffff168152509091909150600082015181600001556020820151816001019080519060200190612ea99291906132d7565b506040820151816002019080519060200190612ec69291906132d7565b506060820151816003019080519060200190612ee39291906132d7565b5060808201518160040160006101000a81548173ffffffffffffffffffffffffffffffffffffffff021916908373ffffffffffffffffffffffffffffffffffffffff16021790555050505060016006805490500360076000866040518082805190602001908083835b602083101515612f715780518252602082019150602081019050602083039250612f4c565b6001836020036101000a038019825116818451168082178552505050505050905001915050604051809103902060001916600019168152602001908152602001600020819055505050505050565b6000600554905090565b3373ffffffffffffffffffffffffffffffffffffffff166000809054906101000a900473ffffffffffffffffffffffffffffffffffffffff1673ffffffffffffffffffffffffffffffffffffffff1614151561302457600080fd5b600060149054906101000a900460ff1615151561304057600080fd5b6001600060146101000a81548160ff02191690831515021790555080600160006101000a81548173ffffffffffffffffffffffffffffffffffffffff021916908373ffffffffffffffffffffffffffffffffffffffff160217905550600160009054906101000a900473ffffffffffffffffffffffffffffffffffffffff1673ffffffffffffffffffffffffffffffffffffffff16633ba0b9a96000604051602001526040518163ffffffff167c0100000000000000000000000000000000000000000000000000000000028152600401602060405180830381600087803b151561312a57600080fd5b6102c65a03f1151561313b57600080fd5b50505060405180519050600281905550600560038190555050565b60068181548110151561316557fe5b90600052602060002090600502016000915090508060000154908060010190806002019080600301908060040160009054906101000a900473ffffffffffffffffffffffffffffffffffffffff16905085565b6000600454905090565b60086020528060005260406000206000915054906101000a900460ff1681565b60035481565b600160009054906101000a900473ffffffffffffffffffffffffffffffffffffffff1681565b6000818301905082811015151561322157fe5b80905092915050565b6000818381151561323757fe5b04905092915050565b6000808314156132535760009050613272565b818302905081838281151561326457fe5b0414151561326e57fe5b8090505b92915050565b600082821115151561328657fe5b818303905092915050565b602060405190810160405280600081525090565b8154818355818115116132d2576005028160050283600052602060002091820191016132d19190613357565b5b505050565b828054600181600116156101000203166002900490600052602060002090601f016020900481019282601f1061331857805160ff1916838001178555613346565b82800160010185558215613346579182015b8281111561334557825182559160200191906001019061332a565b5b50905061335391906133d5565b5090565b6133d291905b808211156133ce5760008082016000905560018201600061337e91906133fa565b60028201600061338e91906133fa565b60038201600061339e91906133fa565b6004820160006101000a81549073ffffffffffffffffffffffffffffffffffffffff02191690555060050161335d565b5090565b90565b6133f791905b808211156133f35760008160009055506001016133db565b5090565b90565b50805460018160011615610100020316600290046000825580601f10613420575061343f565b601f01602090049060005260206000209081019061343e91906133d5565b5b505600a165627a7a72305820b9f172cb6e119886ccc8fddad3faae22362f77e58342e40997994b6d61bf16bb0029",
  "source": "pragma solidity 0.4.19;\r\n\r\n\r\n//import \"https://github.com/OpenZeppelin/openzeppelin-solidity/blob/master/contracts/token/ERC20/MintableToken.sol\"; // does not work\r\n\r\n//import \"./safeMath.sol\";\r\nimport \"./MarketToken.sol\";\r\n\r\ncontract BestMarket {\r\n    \r\n    using SafeMath for uint256;\r\n    \r\n    struct Product {\r\n        uint price;\r\n        string name;\r\n        string description;\r\n        string ipfsPath;\r\n        address seller;\r\n    }\r\n    \r\n    address public owner;\r\n    bool public isContractInit;\r\n    \r\n    MarketToken public mt;\r\n    \r\n    uint public registerTax;\r\n    uint public fee;\r\n    \r\n    uint public numOfSellers;\r\n    uint public numOfBuyers;\r\n    \r\n    Product[] public allProducts;\r\n    mapping(bytes32 => uint256) public productByName; // uint is index from allProducts\r\n    mapping(bytes32 => bool) public isProductExist;\r\n    \r\n    mapping(address => bool) public sellers;\r\n    mapping(address => bool) public buyers;\r\n    \r\n    event RegisterEvent(address addr, uint _registerTax, uint currentTime);\r\n    event BuyProduct(address addr, uint currentTime, uint price, string productName);\r\n    \r\n    function BestMarket() public {\r\n        owner = msg.sender;\r\n    }\r\n    \r\n    modifier isOwner {\r\n        require(owner == msg.sender);\r\n        _;\r\n    }\r\n    \r\n    modifier isContractInitialized {\r\n        require(isContractInit);\r\n        _;\r\n    }\r\n    \r\n    modifier isSeller {\r\n        require(sellers[msg.sender] == true || owner == msg.sender);\r\n        _;\r\n    }\r\n    \r\n    modifier isProductNameFree(string productName) {\r\n        require(isProductExist[keccak256(productName)] != true);\r\n        _;\r\n    }\r\n    \r\n    function () public payable {\r\n    }\r\n    \r\n    function initialize(MarketToken _token) public isOwner {\r\n        require(!isContractInit);\r\n        \r\n        isContractInit = true;\r\n        \r\n        mt = _token;\r\n        registerTax = mt.exchangeRate();// * 10 ** 9; \r\n        fee = 5; //percent\r\n    }\r\n    \r\n    // info funcs\r\n    function getOwner() public view returns (address) {\r\n        return owner;\r\n    }\r\n    \r\n    function getNumOfSellers() public view returns (uint) {\r\n        return numOfSellers;\r\n    }\r\n    \r\n    function getNumOfBuyers() public view returns (uint) {\r\n        return numOfBuyers;\r\n    }\r\n    \r\n    \r\n    //seller section\r\n    function registerAsSeller() public isContractInitialized returns(bool) {\r\n        \r\n        require(sellers[msg.sender] != true);\r\n        require(mt.allowance(msg.sender, address(this)) == registerTax);\r\n        \r\n        mt.transferFrom(msg.sender, address(this), mt.allowance(msg.sender, address(this)));\r\n        \r\n        sellers[msg.sender] = true;\r\n        \r\n        numOfSellers = numOfSellers.add(1);\r\n        \r\n        RegisterEvent(msg.sender, registerTax, now);\r\n        \r\n        return true;\r\n    }\r\n    \r\n    function addProduct(uint _price, string _productName, string _decription, string _ipfsPath) public isContractInitialized isSeller isProductNameFree(_productName) {\r\n        \r\n        isProductExist[keccak256(_productName)] = true;\r\n        allProducts.push(Product({price: _price, name : _productName, description : _decription, ipfsPath : _ipfsPath, seller : msg.sender}));\r\n        productByName[keccak256(_productName)] = allProducts.length - 1;\r\n    }\r\n    \r\n    \r\n    // BUYER section\r\n    function registerAsBuyer() public isContractInitialized {\r\n        \r\n        require(buyers[msg.sender] != true);\r\n        require(mt.allowance(msg.sender, address(this)) == registerTax);\r\n        \r\n        mt.transferFrom(msg.sender, address(this), mt.allowance(msg.sender, address(this)));\r\n        \r\n        buyers[msg.sender] = true;\r\n        \r\n        numOfBuyers = numOfBuyers.add(1);\r\n        \r\n        RegisterEvent(msg.sender, registerTax, now);\r\n        \r\n    }\r\n    \r\n    function buyProduct(string _productName) public isContractInitialized returns (uint, string, string, string) {\r\n        \r\n        bytes32 hashedName = keccak256(_productName);\r\n        \r\n        require(isProductExist[hashedName]);\r\n        require(buyers[msg.sender]);\r\n        \r\n        uint dealFee = allProducts[productByName[hashedName]].price.div(100).mul(fee);\r\n        uint sellerRemainder = allProducts[productByName[hashedName]].price.sub(dealFee);\r\n        \r\n        // ??? check fee/price\r\n        require(mt.allowance(msg.sender, address(this)) == dealFee);\r\n        require(mt.allowance(msg.sender, allProducts[productByName[hashedName]].seller) == sellerRemainder);\r\n        \r\n        // contract fee\r\n        mt.transferFrom(msg.sender, address(this), dealFee);\r\n        // to seller\r\n        mt.transferFrom(msg.sender, allProducts[productByName[hashedName]].seller, sellerRemainder);\r\n        \r\n        BuyProduct(msg.sender, now, allProducts[productByName[hashedName]].price, allProducts[productByName[hashedName]].name);\r\n        \r\n        return (allProducts[productByName[hashedName]].price, \r\n                allProducts[productByName[hashedName]].name, \r\n                allProducts[productByName[hashedName]].description, \r\n                allProducts[productByName[hashedName]].ipfsPath);\r\n    } \r\n    \r\n    // Withdraw ?!?!?!?! \r\n    function withdraw(uint256 amountTkns) public isSeller {\r\n        \r\n        //TODO\r\n        \r\n        require(amountTkns > 0 && mt.balanceOf(msg.sender) >= amountTkns);\r\n        \r\n        //balanceOf[msg.sender] -= amountTkns;\r\n        require(mt.approve(msg.sender, amountTkns));\r\n        \r\n        uint tempTkns = amountTkns;\r\n        amountTkns = 0;\r\n        mt.transferFrom(msg.sender, owner, tempTkns);\r\n        \r\n        uint256 tempEth = tempTkns.div(mt.exchangeRate());\r\n        \r\n        msg.sender.transfer(tempEth);\r\n    }\r\n    \r\n    // view section\r\n    function getProductPrice(string _productName) public view returns (uint) {\r\n        require(isProductExist[keccak256(_productName)]);\r\n        \r\n        return allProducts[productByName[keccak256(_productName)]].price;\r\n    }\r\n    \r\n    // ?!?!?!?!?!\r\n    function getBalance() public view isSeller returns (uint) {\r\n        \r\n        //TODO\r\n        return mt.balanceOf(msg.sender);\r\n    }\r\n    \r\n    function getNumberOfProducts() public view returns (uint) {\r\n        return allProducts.length;\r\n    }\r\n    \r\n    function getProduct(uint index) public view returns (uint, string, string, string) {\r\n        require(index >= 0 && index < allProducts.length);\r\n        return (allProducts[index].price, allProducts[index].name, allProducts[index].description  , allProducts[index].ipfsPath);\r\n    }\r\n}",
  "sourcePath": "C:\\Projects\\BestMarketExtended\\Truffle\\contracts\\bestMarket-extended.sol",
  "compiler": {
    "name": "solc",
    "version": "0.4.19+commit.c4cbbb05.Emscripten.clang"
  },
  "schemaVersion": "1.0.1",
  "updatedAt": "2018-05-21T17:20:41.279Z"
}